:1000000012C02CC02BC02AC029C028C078C426C06A
:1000100025C024C023C022C021C020C01FC01EC0D4
:100020001DC01CC01BC011241FBECFE5D4E0DEBF25
:10003000CDBF10E0A0E6B0E0E6EEF0E102C0059032
:100040000D92A03EB107D9F711E0A0EEB0E001C0DB
:100050001D92A230B107E1F71DD043C8D1CF08955A
:1000600087B3886387BBC49A81B3896181BB82B33C
:10007000866082BB84B3886384BB85B38C6385BB95
:100080000895EEDF8CE090E021D525D485B78F78F8
:1000900085BF0895F6DF80E690E023D5789426D4D6
:1000A000A2D4A1D4FDCFEF92FF920F931F93CF93D1
:1000B000DF93182FF62EE72E042F80320CF41062F7
:1000C00080E0EBD2812FE4D2002351F08F2D9E2DC2
:1000D0009C01E9018991DCD29E012F192017D0F3F0
:1000E00081E0DBD2DF91CF911F910F91FF90EF90D4
:1000F00008959C01462F613208F040E280EBB9017F
:10010000D2DF08959C01462F613208F040E280EA78
:10011000B901C9DF0895BC0180E145E0C4DF08955D
:10012000BC018BE045E0BFDF0895BC018AE045E0FB
:10013000BADF0895EF92FF920F931F93CF93DF934F
:10014000182FF62EE72E042F80E0A7D2812FA0D201
:10015000002359F08F2D9E2D9C01E90180E098D25B
:1001600089939E012F192017C8F381E096D2DF9161
:10017000CF911F910F91FF90EF9008951F93182F2B
:1001800080E08BD2812F84D280E082D2182F81E050
:1001900084D2812F1F91089580E6F0DF089587E0D3
:1001A000EDDF869587700895EF92FF920F931F936E
:1001B000CF93DF93EC017B018A01F1DF873081F07F
:1001C0008883EADF482FF801808381E6B701B2DF38
:1001D00081E0DF91CF911F910F91FF90EF900895F3
:1001E00080E0DF91CF911F910F91FF90EF900895E4
:1001F00088E0C4DF82958F70089588E0BFDF8F703C
:10020000089587E1BBDF8170089587E1B7DF90E053
:1002100096958795929582958F7089279F708927EB
:10022000817008950F931F93182F062F803208F4C2
:10023000106280E032D2812F2BD2802F29D281E030
:100240002CD21F910F9108950F931F93082F162FF3
:10025000613280F48CE192DF282F112379F481E060
:1002600090E0002E02C0880F991F0A94E2F7622FD7
:10027000682B0FC08CE182DF282F10E281E090E034
:10028000002E02C0880F991F0A94E2F7682F60952C
:1002900062238CE1C7DF802F8F5E612FC3DF1F9148
:1002A0000F9108951F93182F80E0FDD186E066DF3F
:1002B000682F6970143008F013E0110F6063612B30
:1002C00086E0B0DF81E0EFD11F91089586E056DF30
:1002D000682F6E7F86E0A6DF089586E04FDF682FE7
:1002E000616086E09FDF0895962F682F6295607F9A
:1002F0009F70692B84E096DF089585E03FDF682FCB
:1003000085E090DF08950F931F93182F062F82E04A
:1003100035DF282F163008F015E0002379F481E04E
:1003200090E002C0880F991F1A95E2F7682F609538
:10033000622382E077DF1F910F91089581E090E0C2
:1003400002C0880F991F1A95E2F7622F682B82E08E
:1003500069DF1F910F9108950F931F93182F062F98
:1003600081E00CDF282F163008F015E0002379F427
:1003700081E090E002C0880F991F1A95E2F7682F7C
:100380006095622381E04EDF1F910F91089581E017
:1003900090E002C0880F991F1A95E2F7622F682B30
:1003A00081E040DF1F910F910895865F3BDF089544
:1003B000863030F085E0682F625083E033DF0895A7
:1003C0008330C8F761E083E02DDF08950F931F931A
:1003D000082F833078F480E0D1DE182F002369F4F1
:1003E00081E060E01FDF137F80E0612F1BDF1F9142
:1003F0000F91089580E0C2DE182F81E06FE312DFD5
:10040000612F6B7F623029F080E00CDF1F910F912C
:10041000089566E0F9CF1F93182F80E044D186E05D
:10042000ADDE682F677F123008F0686086E0FADE84
:1004300081E039D11F910895682F6E7785E0F2DE53
:10044000089580E030D180E099DE682F6D7F80E0F4
:10045000E9DE089580E027D180E090DE682F6260B9
:1004600080E0E0DE089581EE60E0DCDE87E086DE9D
:10047000682F87E0D7DE80E016D180E07FDE682F2E
:100480006E7F626080E0CEDE81E00DD1089582EE65
:1004900060E0C8DE87E072DE682F87E0C3DE80E0C0
:1004A00002D180E06BDE682F636080E0BBDE81E01C
:1004B000FAD008950F931F9387E060DE082F80E540
:1004C00063E5B0DE87E05ADE182F80E563E5AADE3B
:1004D00080E01027103819F01F910F91089581E0E6
:1004E0001F910F9108951F93182F87E047DE87FD16
:1004F00007C0112319F080E563E594DE1F9108958C
:100500001123E1F780E563E58DDEF8CFCF92DF922E
:10051000EF92FF921F93DF93CF93CDB7DEB72C9767
:100520000FB6F894DEBF0FBECDBF81E0DCDF7FE801
:10053000E72E70E0F72E10E06E010894C11CD11C6C
:10054000F70181919191A191B1917F018983292F27
:100550003A2F4B2F55272A839D01442755272B835C
:100560008B2F9927AA27BB278C83812FB60144E0C4
:100570009ADD1F5F193021F763EBE62E60E0F62E5F
:10058000F7014081518162817381F60128E130E0F9
:10059000DB01CA01022E04C0B695A79597958795F1
:1005A0000A94D2F78193285030408FEF283F3807C4
:1005B00079F7812FB60144E076DD1F5FE4E0F0E0DB
:1005C000EE0EFF1E1E30E1F68EE067EC70E04BE0B1
:1005D0006ADD8EE98A8386E88B838BE08C838FEFDC
:1005E000898384E0B60144E05EDD8981897F898367
:1005F00084E0B60144E057DD80E075DF2C960FB64D
:10060000F894DEBF0FBECDBFCF91DF911F91FF9059
:10061000EF90DF90CF900895CF93DF9380E043D0A9
:1006200081E03BD080E04BD080E043D080E05BDFD6
:10063000C6E7D0E088816981F5DD229680E0CA387E
:10064000D807C1F78AE890E070DD8AE890E068DDBD
:100650008AE890E060DD8DE191DD882319F480E582
:1006600063E7E0DD8CE16FE3DDDD8DE167E0DADD9E
:1006700080E060E0E9DD81E060E0E6DD47DF07DFA4
:10068000DF91CF91089580E58DB981E08EB908950D
:100690008FB9779BFECF8FB10895882311F0939A7D
:1006A000089593980895882311F0949A0895949842
:1006B0000895882311F0C39A0895C3980895882354
:1006C00011F0C59A0895C598089502C000000197D9
:1006D0000097E1F70895AA98A29A8BE390E00000B2
:1006E00001972FEF8F3F9207D1F7A29886E090E015
:1006F000000001972FEF8F3F9207D1F783B323E3D9
:1007000030E00000215030409FEF2F3F3907C9F7FC
:1007100084700895AA98A29A8111A29886E090E028
:10072000000001972FEF8F3F9207D1F7A29808950D
:10073000AA98A29AA298000083B3000000000000CB
:100740000000000090E096958795969587958170BA
:1007500008950F931F9310E007E0EADF912F96951D
:10076000182F179511271795192B0150B0F7812FC6
:100770001F910F9108950F931F93082F17E0802F5B
:100780008170C8DF06951150D0F71F910F91089521
:10079000CF92DF92FF920F931F93CF93DF93EC01E1
:1007A0006B0199DF8CECE7DF84E4E5DFC1DF8823B0
:1007B000E9F391DF8CECDFDF8EEBDDDFCADFF82EB3
:1007C000C8DF082F88DF2F2D30E02F70307010E049
:1007D0000770107002951295107F1027007F102768
:1007E000F2944FE0F422F02AF88281E792E0AC0123
:1007F000249FC001259F900D349F900D1124F60178
:1008000091838083DF91CF911F910F91FF90DF90B3
:10081000CF900895EF92FF920F931F93CF93DF93A2
:10082000EC0159DF8CECA7DF84E4A5DF81DF8823AE
:10083000E9F351DF8CEC9FDF8EEB9DDF8ADFE82E42
:1008400088DF082F48DF2E2D30E02F7030704DB735
:100850005EB7485050400FB6F8945EBF0FBE4DBF14
:10086000EDB7FEB73196ADB7BEB71296DC93CE9317
:10087000119782ED90E09383828310E007701070EF
:1008800002951295107F1027007F1027E2946FE0E9
:10089000E622E02AFF24E7FCF094F582E48281E777
:1008A00092E0AC01249FC001259F900D349F900DD4
:1008B0001124978386834FD18DB79EB708960FB6C4
:1008C000F8949EBF0FBE8DBFDF91CF911F910F9106
:1008D000FF90EF9008951DBC1CBC80E593EC9BBD80
:1008E0008ABD88E08EBD80E189BF089589E08EBD14
:1008F000089588E08EBD08951DBC1CBC08951F920C
:100900000F920FB60F9211242F933F934F935F9343
:100910006F937F938F939F93AF93BF93CF93DF9307
:10092000EF93FF936091E0007091E100E2EEF0E060
:10093000A1E020E030E0C1E0D0E0B22F4081518161
:100940004F5F5F4F518340832130B1F1213068F513
:10095000A1E081E090E04817590750F0CE0102C0B5
:10096000880F991FBA95E2F7682B792B11821082B4
:100970002F5F3F4F329624303105F9F67093E10036
:100980006093E000FF91EF91DF91CF91BF91AF9124
:100990009F918F917F916F915F914F913F912F9197
:1009A0000F900FBE0F901F901895223069F02330E2
:1009B00039F08A2F90E0CFCFA2E382E390E0CBCF53
:1009C000A4E184E190E0C7CFA5E085E090E0C3CF4B
:1009D000F89485B7806885BF7894889585B78F77B8
:1009E00085BF78940895AF92BF92CF92DF92EF9235
:1009F000FF920F931F93DF93CF93CDB7DEB764972A
:100A00000FB6F894DEBF0FBECDBF00E010E020911E
:100A1000E0003091E10081E0C82ED12C5E01089405
:100A2000A11CB11C7601002E02C0EE0CFF1C0A9422
:100A3000E2F7C70182239323892BA1F00130E9F16A
:100A4000013038F583E062E05CD02091E000309125
:100A5000E100C70180959095282339233093E10068
:100A60002093E0000F5F1F4F04301105D9F6B0DF6F
:100A700064960FB6F894DEBF0FBECDBFCF91DF9165
:100A80001F910F91FF90EF90DF90CF90BF90AF90AC
:100A90000895023051F00330E1F685E062E031D094
:100AA0002091E0003091E100D4CF84E062E029D0D1
:100AB0002091E0003091E100CCCFC501ABDEC50153
:100AC00010D02091E0003091E100C3CF90BD89B9F2
:100AD00088E18AB986E880BD08955D9BFECF8CB918
:100AE0000895DC01EC91EE2359F080E05D9BFECF90
:100AF000ECB98F5FFD01E80FF11DE081EE23B1F746
:100B00000895382F6130D9F0613058F425B381E071
:100B100090E002C0880F991F3A95E2F7282B25BB79
:100B20000895623009F0089525B381E090E002C095
:100B3000880F991F3A95E2F7282725BB089525B31A
:100B400081E090E002C0880F991F3A95E2F7809506
:100B5000822385BB0895AEE0B0E0E0EBF5E098C2FB
:100B60000D891E8986E08C831A8309838FEF9FE7A6
:100B70009E838D839E01275E3F4FCE0101966F8934
:100B8000788DA90109D02F813885020F131FF80134
:100B900010822E96E4E098C2ABE0B0E0E1EDF5E023
:100BA00069C23C012B015A01FC0117821682838124
:100BB00081FD03C06FEF7FEFB9C19AE0892E1E015E
:100BC0000894211C311CF3012381F20123FD85913E
:100BD00023FF81912F01882309F4A5C1853239F4BF
:100BE00023FD859123FF81912F01853221F490E02F
:100BF000B301B6D1E8CF982FFF24EE249924FFE16A
:100C0000FF15D0F09B3269F09C3228F4903259F0F5
:100C1000933291F40EC09D3249F0903369F441E073
:100C200024C052E0F52A84E0F82A28C098E0F92A86
:100C300025C0E0E1FE2A22C0F7FC29C0892F80539D
:100C40008A3070F4F6FE05C0989C902C1124980E02
:100C500015C0E89CE02C1124E80EF0E2FF2A0EC03B
:100C60009E3229F4F6FC5FC140E4F42A07C09C36AA
:100C700019F450E8F52A02C0983649F4F20123FD30
:100C8000959123FF91912F01992309F0B8CF892FD6
:100C90008554833018F08052833038F444E050E0BB
:100CA000A40EB51E5FE359830FC0933631F093371E
:100CB00079F0933509F052C01FC0F5018081898316
:100CC00042E050E0A40EB51E610101E010E011C049
:100CD000F501C080D180F6FC03C06FEF7FEF02C04A
:100CE000692D70E042E050E0A40EB51EC6012DD182
:100CF0008C015FE7F52213C0F501C080D180F6FCBE
:100D000003C06FEF7FEF02C0692D70E042E050E05A
:100D1000A40EB51EC6010ED18C0150E8F52AF3FED3
:100D200006C018C080E290E0B3011AD1EA948E2D7B
:100D300090E008171907B0F30DC0F601F7FC859194
:100D4000F7FE81916F0190E0B3010AD1E110EA94BE
:100D5000015010400115110581F7E2C0943611F0E1
:100D6000993661F5F7FE08C0F50120813181428195
:100D7000538184E090E00AC0F501808191819C015B
:100D8000442737FD4095542F82E090E0A80EB91E0D
:100D90009FE6F92257FF09C050954095309521955F
:100DA0003F4F4F4F5F4FE0E8FE2ACA01B901A10152
:100DB0002AE030E001D1D82ED2183FC0953729F46F
:100DC0001F2D1F7E2AE030E01DC01F2D197F9F368A
:100DD00061F0903720F4983509F0A5C00FC0903726
:100DE00039F0983709F09FC004C028E030E00AC00D
:100DF000106114FD146020E130E004C014FD1660A1
:100E000020E132E017FF08C0F50160817181828125
:100E1000938144E050E008C0F50180819181BC01DC
:100E200080E090E042E050E0A40EB51EA101C4D0E5
:100E3000D82ED2188FE7F82EF122F6FE0BC05EEF07
:100E4000F522D91438F4F4FE07C0F2FC05C08FEE89
:100E5000F82202C01D2D01C0192DF4FE0DC0FE01A7
:100E6000ED0DF11D8081803319F499EEF92208C04F
:100E70001F5FF2FE05C003C08F2D867809F01F5F4B
:100E80000F2DF3FC13C0F0FE0EC01E1510F09D2CAC
:100E90000AC09D2C9E0C911A1E2D05C080E290E088
:100EA000B3015ED01F5F1E15C8F304C01E1510F4F9
:100EB000E11A01C0EE2404FF0EC080E390E0B3010C
:100EC0004FD002FF1BC001FD03C088E790E00EC0B9
:100ED00088E590E00BC0802F867881F001FF02C08A
:100EE0008BE201C080E2F7FC8DE290E0B30138D0E4
:100EF00005C080E390E0B30133D09A94D914C8F3CD
:100F0000DA94F101ED0DF11D808190E0B30128D05C
:100F1000DD20B1F705C080E290E0B30121D0EA9472
:100F2000EE20C9F750CEF30166817781CB012B9675
:100F3000E2E1BCC0FC010590615070400110D8F79F
:100F4000809590958E0F9F1F0895FC016150704011
:100F500001900110D8F7809590958E0F9F1F0895EE
:100F60000F931F93CF93DF938C01EB018B8181FF54
:100F70001BC082FF0DC02E813F818C819D8128176F
:100F8000390764F4E881F9810193F983E88306C0A5
:100F9000E885F985802F0995892B31F48E819F8111
:100FA00001969F838E8302C00FEF1FEFC801DF9170
:100FB000CF911F910F910895FA01AA27283051F17E
:100FC000203181F1E8946F936E7F6E5F7F4F8F4F7A
:100FD0009F4FAF4FB1E03ED0B4E03CD0670F781FD9
:100FE000891F9A1FA11D680F791F8A1F911DA11DBE
:100FF0006A0F711D811D911DA11D20D009F46894F7
:101000003F912AE0269F11243019305D3193DEF69E
:10101000CF010895462F4770405D4193B3E00FD054
:10102000C9F7F6CF462F4F70405D4A3318F0495D3F
:1010300031FD4052419302D0A9F7EACFB4E0A69522
:101040009795879577956795BA95C9F70097610544
:10105000710508959B01AC010A2E0694579547959A
:1010600037952795BA95C9F7620F731F841F951F8F
:10107000A01D08952F923F924F925F926F927F92A0
:101080008F929F92AF92BF92CF92DF92EF92FF9298
:101090000F931F93CF93DF93CDB7DEB7CA1BDB0B44
:1010A0000FB6F894DEBF0FBECDBF09942A883988E9
:1010B00048885F846E847D848C849B84AA84B984F0
:1010C000C884DF80EE80FD800C811B81AA81B981FC
:1010D000CE0FD11D0FB6F894DEBF0FBECDBFED0110
:0610E0000895F894FFCF13
:1010E60057656C636F6D6520746F2068656C6C2145
:1010F60021210D0A0000000F013F0203030304FF34
:10110600050A063707070800170034431010014088
:101116004B01E2C04B0000D0FC8C0299003941F92A
:101126009E860B24067FA60000000000000000003B
:1011360000000000000000000000000000000000A9
:101146007312000080B436412008048120CFF7FED8
:10115600FFFF252B642E2530347520430D0A000031
:00000001FF
