:1000000012C024C023C022C021C020C01FC01EC0F7
:100010001DC01CC01BC01AC019C018C017C016C014
:1000200015C014C013C011241FBECFE5D4E0DEBF3D
:10003000CDBF10E0A0E6B0E0E8EEF6E002C005902B
:100040000D92A23DB107D9F719D04CC3D9CF08956D
:1000500087B3886387BBC49A81B3896181BB82B34C
:10006000866082BB84B3886384BB85B38C6385BBA5
:100070000895EEDF8CE090E01AD30895E8DFF9DF11
:1000800080E690E01FD3FFCFEF92FF920F931F9374
:10009000CF93DF93182FF62EE72E042F80320CF427
:1000A000106280E0EBD2812FE4D2002351F08F2D3B
:1000B0009E2D9C01E9018991DCD29E012F19201708
:1000C000D0F381E0DBD2DF91CF911F910F91FF90B0
:1000D000EF9008959C01462F613208F040E280EBDA
:1000E000B901D2DF08959C01462F613208F040E249
:1000F00080EAB901C9DF0895BC0180E145E0C4DFB1
:100100000895BC018BE045E0BFDF0895BC018AE0A3
:1001100045E0BADF0895EF92FF920F931F93CF93BC
:10012000DF93182FF62EE72E042F80E0A7D2812F21
:10013000A0D2002359F08F2D9E2D9C01E90180E073
:1001400098D289939E012F192017C8F381E096D287
:10015000DF91CF911F910F91FF90EF9008951F9322
:10016000182F80E08BD2812F84D280E082D2182F8A
:1001700081E084D2812F1F91089580E6F0DF0895F9
:1001800087E0EDDF869587700895EF92FF920F93D9
:100190001F93CF93DF93EC017B018A01F1DF87305E
:1001A00081F08883EADF482FF801808381E6B70178
:1001B000B2DF81E0DF91CF911F910F91FF90EF901F
:1001C000089580E0DF91CF911F910F91FF90EF9004
:1001D000089588E0C4DF82958F70089588E0BFDFBE
:1001E0008F70089587E1BBDF8170089587E1B7DFE5
:1001F00090E096958795929582958F7089279F704C
:100200008927817008950F931F93182F062F80322E
:1002100008F4106280E032D2812F2BD2802F29D2B5
:1002200081E02CD21F910F9108950F931F93082FF7
:10023000162F613280F48CE192DF282F112379F49C
:1002400081E090E0002E02C0880F991F0A94E2F727
:10025000622F682B0FC08CE182DF282F10E281E033
:1002600090E0002E02C0880F991F0A94E2F7682FD1
:10027000609562238CE1C7DF802F8F5E612FC3DF23
:100280001F910F9108951F93182F80E0FDD186E0F4
:1002900066DF682F6970143008F013E0110F606397
:1002A000612B86E0B0DF81E0EFD11F91089586E0F9
:1002B00056DF682F6E7F86E0A6DF089586E04FDF69
:1002C000682F616086E09FDF0895962F682F629502
:1002D000607F9F70692B84E096DF089585E03FDFA3
:1002E000682F85E090DF08950F931F93182F062F36
:1002F00082E035DF282F163008F015E0002379F46E
:1003000081E090E002C0880F991F1A95E2F7682FEC
:100310006095622382E077DF1F910F91089581E05D
:1003200090E002C0880F991F1A95E2F7622F682BA0
:1003300082E069DF1F910F9108950F931F93182F8B
:10034000062F81E00CDF282F163008F015E000237F
:1003500079F481E090E002C0880F991F1A95E2F7C6
:10036000682F6095622381E04EDF1F910F91089501
:1003700081E090E002C0880F991F1A95E2F7622F82
:10038000682B81E040DF1F910F910895865F3BDF6E
:100390000895863030F085E0682F625083E033DFC7
:1003A00008958330C8F761E083E02DDF08950F934F
:1003B0001F93082F833078F480E0D1DE182F0023BC
:1003C00069F481E060E01FDF137F80E0612F1BDFB5
:1003D0001F910F91089580E0C2DE182F81E06FE336
:1003E00012DF612F6B7F623029F080E00CDF1F91FC
:1003F0000F91089566E0F9CF1F93182F80E044D144
:1004000086E0ADDE682F677F123008F0686086E016
:10041000FADE81E039D11F910895682F6E7785E06B
:10042000F2DE089580E030D180E099DE682F6D7FA4
:1004300080E0E9DE089580E027D180E090DE682F3B
:10044000626080E0E0DE089581EE60E0DCDE87E05F
:1004500086DE682F87E0D7DE80E016D180E07FDE81
:10046000682F6E7F626080E0CEDE81E00DD108955E
:1004700082EE60E0C8DE87E072DE682F87E0C3DED0
:1004800080E002D180E06BDE682F636080E0BBDE3D
:1004900081E0FAD008950F931F9387E060DE082F64
:1004A00080E563E5B0DE87E05ADE182F80E563E57E
:1004B000AADE80E01027103819F01F910F910895DF
:1004C00081E01F910F9108951F93182F87E047DE59
:1004D00087FD07C0112319F080E563E594DE1F91C5
:1004E00008951123E1F780E563E58DDEF8CFCF9223
:1004F000DF92EF92FF921F93DF93CF93CDB7DEB7DA
:100500002C970FB6F894DEBF0FBECDBF81E0DCDFC5
:100510007FE8E72E70E0F72E10E06E010894C11C12
:10052000D11CF70181919191A191B1917F018983B2
:10053000292F3A2F4B2F55272A839D0144275527D2
:100540002B838B2F9927AA27BB278C83812FB6015A
:1005500044E09ADD1F5F193021F763EBE62E60E07F
:10056000F62EF7014081518162817381F60128E105
:1005700030E0DB01CA01022E04C0B695A79597951D
:1005800087950A94D2F78193285030408FEF283F07
:10059000380779F7812FB60144E076DD1F5FE4E08C
:1005A000F0E0EE0EFF1E1E30E1F68EE067EC70E02C
:1005B0004BE06ADD8EE98A8386E88B838BE08C834F
:1005C0008FEF898384E0B60144E05EDD8981897F15
:1005D000898384E0B60144E057DD80E075DF2C9626
:1005E0000FB6F894DEBF0FBECDBFCF91DF911F9144
:1005F000FF90EF90DF90CF900895CF93DF9380E04E
:1006000043D081E03BD080E04BD080E043D080E01D
:100610005BDFC6E7D0E088816981F5DD229680E066
:10062000CA38D807C1F78AE890E070DD8AE890E020
:1006300068DD8AE890E060DD8DE191DD882319F4C2
:1006400080E563E7E0DD8CE16FE3DDDD8DE167E010
:10065000DADD80E060E0E9DD81E060E0E6DD47DFF3
:1006600007DFDF91CF91089580E58DB981E08EB9E4
:1006700008958FB9779BFECF8FB10895882311F02D
:10068000939A089593980895882311F0949A089561
:1006900094980895882311F0C39A0895C3980895F3
:1006A000882311F0C59A0895C5980895089590BDBE
:1006B00089B988E18AB986E880BD08955D9BFECF3F
:1006C0008CB90895DC01EC91EE2359F080E05D9B3C
:1006D000FECFECB98F5FFD01E80FF11DE081EE2345
:0806E000B1F70895F894FFCF73
:1006E80057656C636F6D6520746F2068656C6C214D
:1006F80021210D0A0000000F013F0203030304FF3C
:10070800050A063707070800170034431010014090
:100718004B01E2C04B0000D0FC8C0299003941F932
:100728009E860B24067FA600000000000000000043
:1007380000000000000000000000000000000000B1
:100748007312000080B436412008048120CFF7FEE0
:02075800FFFFA1
:00000001FF
