:1000000012C019C018C017C016C015C014C013C044
:1000100012C011C010C00FC00EC00DC00CC00BC06C
:100020000AC009C008C011241FBECFE5D4E0DEBF5E
:10003000CDBF02D02CC0E4CFDF93CF93CDB7DEB7D6
:100040001ED0FFCFDF93CF93CDB7DEB7A7E3B0E0ED
:10005000E7E3F0E0808188638C93A8E3B0E0E8E315
:10006000F0E0808180618C93EDE2F0E080E58083B8
:10007000EEE2F0E081E08083CF91DF910895DF939D
:10008000CF93CDB7DEB7DEDFCF91DF910895F8943F
:02009000FFCFA0
:00000001FF
